:030000000207CA2A
:0C07CA00787FE4F6D8FD75811C02064023
:100333002057656C636F6D6520746F20200020412A
:100343006D79202073747564696F2000616D792D58
:1003530073747564696F2E636F6D00204E6F6B69E4
:100363006135313130204C4344000000000000006F
:100373000000000000000080C040200010100008B2
:10038300080808080808001010002040C08000007A
:10039300000000000000000000000000000000005A
:1003A3000000000000700C020100000000000000CB
:1003B300000000000000000000000000000000003A
:1003C30001020C70000000000000000000000000AB
:1003D3000000000000007F00000080C0E0E0F0F0BB
:1003E300F0F0E0C00000000000C0E0F0F0F0F0E04A
:1003F300E0C0800000007F0000000000000000005B
:100403000000000000000000070018608387878752
:10041300070303030140F0F0F0F0F040010303038E
:10042300078787878360180007000000000000002B
:10043300000000000000000000000000000000FFBA
:10044300001F27488888888888484848888888887B
:100453008848271F00FF0000000000000000000084
:100463000000000000000000000000000000000089
:1004730000000302040408001010101010101010E4
:100483001000080404020300000000000000000044
:100493000000000000000000000000000000000059
:1004A3000000000000000000000000000000000049
:1004B3000000000000000000000000000000000039
:0804C300000000000000000031
:1006400012068D1207007BFF7A037933E4FDFF1257
:1006500007587BFF7A0379417D01E4FF1207587B3D
:10066000FF7A03794F7D02E4FF1207587BFF7A037C
:10067000795E7D03E4FF120758751704E4F51875D9
:0D06800019057B0C7D047F0C1204CB80B9A2
:100003000000000000000000002F000000000700B7
:10001300070000147F147F1400242A7F2A12006231
:1000230064081323003649552250000005030000DD
:1000330000001C224100000041221C000014083E65
:1000430008140008083E0808000000A0600000082B
:10005300080808080000606000000020100804027F
:10006300003E5149453E0000427F4000004261513D
:100073004946002141454B31001814127F100027D7
:1000830045454539003C4A4949300001710905039A
:1000930000364949493600064949291E00003636CB
:1000A300000000005636000000081422410000142E
:1000B300141414140000412214080002015109060B
:1000C30000324959513E007C1211127C007F49498C
:1000D3004936003E41414122007F4141221C007FBD
:1000E30049494941007F09090901003E4149497ACB
:1000F300007F0808087F0000417F41000020404145
:100103003F01007F08142241007F40404040007FB0
:10011300020C027F007F0408107F003E4141413EF4
:10012300007F09090906003E4151215E007F09193C
:1001330029460046494949310001017F0101003F39
:100143004040403F001F2040201F003F4038403FB9
:10015300006314081463000708700807006151491D
:10016300454300007F41410000552A552A550000B0
:1001730041417F000004020102040040404040402E
:10018300000001020400002054545478007F4844C6
:10019300443800384444442000384444487F0038FD
:1001A3005454541800087E0901020018A4A4A47C26
:1001B300007F080404780000447D400000408084F0
:1001C3007D00007F102844000000417F4000007C38
:1001D30004180478007C0804047800384444443844
:1001E30000FC242424180018242418FC007C080490
:1001F300040800485454542000043F444020003C69
:100203004040207C001C2040201C003C4030403CEF
:10021300004428102844001CA0A0A07C004464547F
:100223004C441414141414140404046F8404846FCD
:10023300040404000808040402010204040808007A
:100243001012149850FF509814121000020201006B
:10025300000F000001020200FC242424FF242424B4
:10026300FC000000030101010709090909080E0048
:100273004040424242F24A464240400000000008E9
:10028300080F00000000000000FC949494FF949475
:1002930094FE0400000100000003040404040600AB
:1002A3002021212121F929252331200000000004E8
:1002B300040700000000000018D654FF5456D40071
:1002C300FC00FF0000030007000203000404070012
:1002D3001008FC130804FF24242404000000070072
:1002E3000000070101010100406252CA47E242DEF9
:1002F30050505800040201040407000001020400E6
:1003030004A424A424BF242424A604000201000777
:1003130004040504060003008444F52E401010FF76
:100323001010100000000700040404070404040074
:0E07AC00E4FFFE0FBF00010EBE13F8BF88F57C
:0107BA00221C
:0E07BB00E4FFFE0FBF00010EBE13F8BF88F56D
:0107C900220D
:04077E00AD07AC0611
:10078200E4FBFAC3EB9DEA9C500A1207BB0BBB00C9
:04079200010A80EFE9
:010796002240
:10068D00C2A11207ACD2A1C2A21207ACD2A212070C
:10069D00ACE4FD7F211206DAE4FD7FA01206DAE458
:1006AD00FD7F071206DAE4FD7F171206DAE4FD7FFF
:1006BD00201206DA120700E4FD7F0C1206DAC2A240
:0106CD00220A
:10070000E4FD7F0C1206DAE4FD7F801206DAE4F5E0
:1007100014F5157D01E4FF1206DA0515E5157002E2
:0B0720000514C394F8E514940140E8B0
:01072B0022AB
:100797008F1CED4440FFE4FD1206DAE51C4480FFA0
:0507A700E4FD0206DA8A
:02072C008F1725
:10072E0074E02517F517E4F51875F006E517A424FF
:10073E0003F582E5F03400F583E58225181206CE26
:09074E000518E518C3940640E00B
:01075700227F
:100758008B148A158916120797AB14AA15A91612B5
:1007680005DCFF601012072C74012516F516E43518
:0607780015F51580E422D6
:0604CB008F148D158B1645
:1004D100120797E4F51AE51AC395175077E4F51B4F
:1004E100E51675F002A4FFC3E51B9FE5F06480F8F3
:1004F100748098504AE51B6516701EE51A7008E570
:100501001504FDAF14800FE5162519851AF0A425F1
:1005110014FFE51504FD120797E518251AFFE433CA
:10052100FE90022B75F018EF120634EE75F018A448
:100531002583F583E582251B1206CE051B80A105C7
:100541001AE5162519851AF0A42514FFAD15120711
:04055100970204D732
:010555002283
:0A0556008F088D098B0A8A0B890CAF
:10056000E50E5407700BE50E131313541FF513809B
:100570000AE50E131313541F04F513E4F511F512D5
:10058000C3E5129513E51194005050AD09AF081260
:100590000797E4F50FF510AF0D7E00C3E5109FE55A
:1005A0000F9E502BAC11AD12120622E5102FFFE565
:1005B0000F3EAB0AAA0BA90C8F82F5831205F5FF3B
:1005C0007D011206DA0510E51070CC050F80C80514
:0B05D000090512E51270A9051180A5B5
:0105DB0022FD
:0C06CE00F582E43583F583E493FF7D01A1
:1006DA00C2A2ED7004C2A38002D2A3E4FEEF30E707
:1006EA0004D2A48002C2A4C2A5EF25E0FFD2A50EBF
:0506FA00BE08EAD2A2D7
:0106FF0022D8
:1005DC00BB010689828A83E0225002E722BBFE021D
:0905EC00E32289828A83E4932250
:1005F500BB010CE58229F582E5833AF583E02250BB
:1006050006E92582F8E622BBFE06E92582F8E22204
:0D061500E58229F582E5833AF583E493221E
:10062200EF8DF0A4A8F0CF8CF0A428CE8DF0A42EEC
:02063200FE22A6
:0C063400A42582F582E5F03583F58322D1
:00000001FF
